{
  "contractName": "ComponentFactory",
  "abi": [
    {
      "constant": false,
      "inputs": [
        {
          "name": "_componentName",
          "type": "string"
        },
        {
          "name": "_owner",
          "type": "address"
        }
      ],
      "name": "createComponent",
      "outputs": [
        {
          "name": "",
          "type": "address"
        }
      ],
      "payable": false,
      "stateMutability": "nonpayable",
      "type": "function",
      "signature": "0x3642a132"
    }
  ],
  "bytecode": "0x608060405234801561001057600080fd5b50610ddc806100206000396000f3fe608060405260043610610041576000357c0100000000000000000000000000000000000000000000000000000000900463ffffffff1680633642a13214610046575b600080fd5b34801561005257600080fd5b506100ea6004803603604081101561006957600080fd5b810190808035906020019064010000000081111561008657600080fd5b82018360208201111561009857600080fd5b803590602001918460018302840111640100000000831117156100ba57600080fd5b9091929391929390803573ffffffffffffffffffffffffffffffffffffffff16906020019092919050505061012c565b604051808273ffffffffffffffffffffffffffffffffffffffff1673ffffffffffffffffffffffffffffffffffffffff16815260200191505060405180910390f35b60008084848461013a6101cc565b80806020018373ffffffffffffffffffffffffffffffffffffffff1673ffffffffffffffffffffffffffffffffffffffff1681526020018281038252858582818152602001925080828437600081840152601f19601f820116905080830192505050945050505050604051809103906000f0801580156101be573d6000803e3d6000fd5b509050809150509392505050565b604051610bd4806101dd8339019056fe608060405234801561001057600080fd5b50604051610bd4380380610bd48339810180604052604081101561003357600080fd5b81019080805164010000000081111561004b57600080fd5b8281019050602081018481111561006157600080fd5b815185600182028301116401000000008211171561007e57600080fd5b50509291906020018051906020019092919050505081600190805190602001906100a992919061013b565b5080600360006101000a81548173ffffffffffffffffffffffffffffffffffffffff021916908373ffffffffffffffffffffffffffffffffffffffff160217905550600060028190555060008060006101000a81548173ffffffffffffffffffffffffffffffffffffffff021916908373ffffffffffffffffffffffffffffffffffffffff16021790555050506101e0565b828054600181600116156101000203166002900490600052602060002090601f016020900481019282601f1061017c57805160ff19168380011785556101aa565b828001600101855582156101aa579182015b828111156101a957825182559160200191906001019061018e565b5b5090506101b791906101bb565b5090565b6101dd91905b808211156101d95760008160009055506001016101c1565b5090565b90565b6109e5806101ef6000396000f3fe608060405260043610610099576000357c0100000000000000000000000000000000000000000000000000000000900463ffffffff16806312a39db21461009e5780631eee993a146100ef5780632d080ec514610140578063324868cb146101915780633bc5de30146101f657806368446ead14610286578063893d20e81461030c578063eed29d2614610363578063ef793dc4146103de575b600080fd5b3480156100aa57600080fd5b506100ed600480360360208110156100c157600080fd5b81019080803573ffffffffffffffffffffffffffffffffffffffff169060200190929190505050610409565b005b3480156100fb57600080fd5b5061013e6004803603602081101561011257600080fd5b81019080803573ffffffffffffffffffffffffffffffffffffffff1690602001909291905050506104f2565b005b34801561014c57600080fd5b5061018f6004803603602081101561016357600080fd5b81019080803573ffffffffffffffffffffffffffffffffffffffff16906020019092919050505061060e565b005b34801561019d57600080fd5b506101e0600480360360208110156101b457600080fd5b81019080803573ffffffffffffffffffffffffffffffffffffffff1690602001909291905050506106b4565b6040518082815260200191505060405180910390f35b34801561020257600080fd5b5061020b6106fd565b6040518080602001828103825283818151815260200191508051906020019080838360005b8381101561024b578082015181840152602081019050610230565b50505050905090810190601f1680156102785780820380516001836020036101000a031916815260200191505b509250505060405180910390f35b34801561029257600080fd5b5061030a600480360360208110156102a957600080fd5b81019080803590602001906401000000008111156102c657600080fd5b8201836020820111156102d857600080fd5b803590602001918460018302840111640100000000831117156102fa57600080fd5b909192939192939050505061079f565b005b34801561031857600080fd5b506103216108a3565b604051808273ffffffffffffffffffffffffffffffffffffffff1673ffffffffffffffffffffffffffffffffffffffff16815260200191505060405180910390f35b34801561036f57600080fd5b5061039c6004803603602081101561038657600080fd5b81019080803590602001909291905050506108cd565b604051808273ffffffffffffffffffffffffffffffffffffffff1673ffffffffffffffffffffffffffffffffffffffff16815260200191505060405180910390f35b3480156103ea57600080fd5b506103f361090a565b6040518082815260200191505060405180910390f35b6000600560008373ffffffffffffffffffffffffffffffffffffffff1673ffffffffffffffffffffffffffffffffffffffff1681526020019081526020016000205490506004600082815260200190815260200160002060006101000a81549073ffffffffffffffffffffffffffffffffffffffff02191690557f185d5d6cdf03c63bd52cddcf2f23271f1bd6427b9f9c22d5a757370437233a388183604051808381526020018273ffffffffffffffffffffffffffffffffffffffff1673ffffffffffffffffffffffffffffffffffffffff1681526020019250505060405180910390a15050565b8060046000600254815260200190815260200160002060006101000a81548173ffffffffffffffffffffffffffffffffffffffff021916908373ffffffffffffffffffffffffffffffffffffffff160217905550600254600560008373ffffffffffffffffffffffffffffffffffffffff1673ffffffffffffffffffffffffffffffffffffffff168152602001908152602001600020819055506002600081548092919060010191905055507fdc5e352898e32ce937d573878df51e35481e372e713dba8856b768ddc2241b3860025482604051808381526020018273ffffffffffffffffffffffffffffffffffffffff1673ffffffffffffffffffffffffffffffffffffffff1681526020019250505060405180910390a150565b806000806101000a81548173ffffffffffffffffffffffffffffffffffffffff021916908373ffffffffffffffffffffffffffffffffffffffff1602179055507fb284202a17351053e1b1a463c9efeb12e6b4d215d346f655a03ad88d0046f31b81604051808273ffffffffffffffffffffffffffffffffffffffff1673ffffffffffffffffffffffffffffffffffffffff16815260200191505060405180910390a150565b6000600560008373ffffffffffffffffffffffffffffffffffffffff1673ffffffffffffffffffffffffffffffffffffffff168152602001908152602001600020549050919050565b606060018054600181600116156101000203166002900480601f0160208091040260200160405190810160405280929190818152602001828054600181600116156101000203166002900480156107955780601f1061076a57610100808354040283529160200191610795565b820191906000526020600020905b81548152906001019060200180831161077857829003601f168201915b5050505050905090565b7fef9814c66faa7c7d707dd59f00d98335bb96acb8439c7b8d3888f1a1476c47a2600183836040518080602001806020018381038352868181546001816001161561010002031660029004815260200191508054600181600116156101000203166002900480156108515780601f1061082657610100808354040283529160200191610851565b820191906000526020600020905b81548152906001019060200180831161083457829003601f168201915b50508381038252858582818152602001925080828437600081840152601f19601f8201169050808301925050509550505050505060405180910390a181816001919061089e929190610914565b505050565b6000600360009054906101000a900473ffffffffffffffffffffffffffffffffffffffff16905090565b60006004600083815260200190815260200160002060009054906101000a900473ffffffffffffffffffffffffffffffffffffffff169050919050565b6000600254905090565b828054600181600116156101000203166002900490600052602060002090601f016020900481019282601f1061095557803560ff1916838001178555610983565b82800160010185558215610983579182015b82811115610982578235825591602001919060010190610967565b5b5090506109909190610994565b5090565b6109b691905b808211156109b257600081600090555060010161099a565b5090565b9056fea165627a7a723058205445742d617fc2b40abaa68c3cc57a3f7f8ecfb63cbf430f7d85a5fc2f047b010029a165627a7a723058200a93f43e56e0f9b0653d4d188a514f5937a155c0b0668106e350e95208a6d4f70029",
  "source": "pragma solidity >=0.4.22 <0.6.0;\n\nimport \"./Component.sol\";\n\ncontract ComponentFactory {\n\n    function createComponent(string calldata _componentName, address _owner) external returns (address){\n        Component c = new Component(_componentName, _owner);\n        return address(c);\n    }\n}",
  "sourcePath": "/home/cosmin/Documents/github/learning/licenta/IKHNAIE/contracts/ComponentFactory.sol",
  "compiler": {
    "name": "solc",
    "version": "0.5.0+commit.1d4f565a.Emscripten.clang"
  },
  "schemaVersion": "3.0.1",
  "updatedAt": "2019-03-04T20:33:03.936Z",
  "devdoc": {
    "methods": {}
  },
  "userdoc": {
    "methods": {}
  }
}