{
  "contractName": "Manager",
  "abi": [
    {
      "constant": true,
      "inputs": [
        {
          "name": "",
          "type": "uint256"
        }
      ],
      "name": "registredComponents",
      "outputs": [
        {
          "name": "",
          "type": "address"
        }
      ],
      "payable": false,
      "stateMutability": "view",
      "type": "function",
      "signature": "0x5514b39a"
    },
    {
      "inputs": [
        {
          "name": "_componentFactoryAddress",
          "type": "address"
        }
      ],
      "payable": false,
      "stateMutability": "nonpayable",
      "type": "constructor",
      "signature": "constructor"
    },
    {
      "anonymous": false,
      "inputs": [
        {
          "indexed": false,
          "name": "index",
          "type": "uint256"
        },
        {
          "indexed": false,
          "name": "componentAddress",
          "type": "address"
        }
      ],
      "name": "ComponentCreated",
      "type": "event",
      "signature": "0x0393d47abee40bed4c1d31b61a9ba0754e286c83f2b793235053fd7777423412"
    },
    {
      "anonymous": false,
      "inputs": [
        {
          "indexed": false,
          "name": "index",
          "type": "uint256"
        },
        {
          "indexed": false,
          "name": "componentAddress",
          "type": "address"
        }
      ],
      "name": "ComponentUpdated",
      "type": "event",
      "signature": "0x8bab50e10af22f6dfca9a4bce519be570afebe4180f16bdbb9da135453a67f5d"
    },
    {
      "constant": false,
      "inputs": [
        {
          "name": "_data",
          "type": "string"
        }
      ],
      "name": "createComponent",
      "outputs": [
        {
          "name": "",
          "type": "address"
        }
      ],
      "payable": false,
      "stateMutability": "nonpayable",
      "type": "function",
      "signature": "0x1b9e9a27"
    },
    {
      "constant": false,
      "inputs": [
        {
          "name": "_parentComponentAddress",
          "type": "address"
        },
        {
          "name": "_childComponentAddress",
          "type": "address"
        }
      ],
      "name": "addChildComponentToComponent",
      "outputs": [],
      "payable": false,
      "stateMutability": "nonpayable",
      "type": "function",
      "signature": "0xf8d492da"
    },
    {
      "constant": false,
      "inputs": [
        {
          "name": "_parentComponentAddress",
          "type": "address"
        },
        {
          "name": "_childComponentAddress",
          "type": "address"
        }
      ],
      "name": "removeChildComponentFromComponent",
      "outputs": [],
      "payable": false,
      "stateMutability": "nonpayable",
      "type": "function",
      "signature": "0x9a7ba5a2"
    },
    {
      "constant": false,
      "inputs": [
        {
          "name": "_componentAddress",
          "type": "address"
        },
        {
          "name": "_data",
          "type": "string"
        }
      ],
      "name": "updateData",
      "outputs": [],
      "payable": false,
      "stateMutability": "nonpayable",
      "type": "function",
      "signature": "0x11c49895"
    },
    {
      "constant": true,
      "inputs": [
        {
          "name": "_parentComponentAddress",
          "type": "address"
        },
        {
          "name": "_id",
          "type": "uint256"
        }
      ],
      "name": "getChildComponentAddressById",
      "outputs": [
        {
          "name": "",
          "type": "address"
        }
      ],
      "payable": false,
      "stateMutability": "view",
      "type": "function",
      "signature": "0x490e2acb"
    },
    {
      "constant": true,
      "inputs": [
        {
          "name": "_parentComponentAddress",
          "type": "address"
        },
        {
          "name": "_childComponentAddress",
          "type": "address"
        }
      ],
      "name": "getChildComponentIndexByAddress",
      "outputs": [
        {
          "name": "",
          "type": "uint256"
        }
      ],
      "payable": false,
      "stateMutability": "view",
      "type": "function",
      "signature": "0x75e21212"
    }
  ],
  "bytecode": "0x608060405234801561001057600080fd5b50604051602080610dab8339810180604052602081101561003057600080fd5b8101908080519060200190929190505050600060018190555080600360006101000a81548173ffffffffffffffffffffffffffffffffffffffff021916908373ffffffffffffffffffffffffffffffffffffffff16021790555050610d118061009a6000396000f3fe608060405260043610610083576000357c0100000000000000000000000000000000000000000000000000000000900463ffffffff16806311c49895146100885780631b9e9a2714610170578063490e2acb146102785780635514b39a1461031357806375e212121461038e5780639a7ba5a214610413578063f8d492da14610484575b600080fd5b34801561009457600080fd5b5061016e600480360360408110156100ab57600080fd5b81019080803573ffffffffffffffffffffffffffffffffffffffff169060200190929190803590602001906401000000008111156100e857600080fd5b8201836020820111156100fa57600080fd5b8035906020019184600183028401116401000000008311171561011c57600080fd5b91908080601f016020809104026020016040519081016040528093929190818152602001838380828437600081840152601f19601f8201169050808301925050505050505091929192905050506104f5565b005b34801561017c57600080fd5b506102366004803603602081101561019357600080fd5b81019080803590602001906401000000008111156101b057600080fd5b8201836020820111156101c257600080fd5b803590602001918460018302840111640100000000831117156101e457600080fd5b91908080601f016020809104026020016040519081016040528093929190818152602001838380828437600081840152601f19601f8201169050808301925050505050505091929192905050506105eb565b604051808273ffffffffffffffffffffffffffffffffffffffff1673ffffffffffffffffffffffffffffffffffffffff16815260200191505060405180910390f35b34801561028457600080fd5b506102d16004803603604081101561029b57600080fd5b81019080803573ffffffffffffffffffffffffffffffffffffffff1690602001909291908035906020019092919050505061081f565b604051808273ffffffffffffffffffffffffffffffffffffffff1673ffffffffffffffffffffffffffffffffffffffff16815260200191505060405180910390f35b34801561031f57600080fd5b5061034c6004803603602081101561033657600080fd5b81019080803590602001909291905050506108dc565b604051808273ffffffffffffffffffffffffffffffffffffffff1673ffffffffffffffffffffffffffffffffffffffff16815260200191505060405180910390f35b34801561039a57600080fd5b506103fd600480360360408110156103b157600080fd5b81019080803573ffffffffffffffffffffffffffffffffffffffff169060200190929190803573ffffffffffffffffffffffffffffffffffffffff16906020019092919050505061090f565b6040518082815260200191505060405180910390f35b34801561041f57600080fd5b506104826004803603604081101561043657600080fd5b81019080803573ffffffffffffffffffffffffffffffffffffffff169060200190929190803573ffffffffffffffffffffffffffffffffffffffff1690602001909291905050506109f8565b005b34801561049057600080fd5b506104f3600480360360408110156104a757600080fd5b81019080803573ffffffffffffffffffffffffffffffffffffffff169060200190929190803573ffffffffffffffffffffffffffffffffffffffff169060200190929190505050610b6f565b005b60008290508073ffffffffffffffffffffffffffffffffffffffff166368446ead836040518263ffffffff167c01000000000000000000000000000000000000000000000000000000000281526004018080602001828103825283818151815260200191508051906020019080838360005b83811015610582578082015181840152602081019050610567565b50505050905090810190601f1680156105af5780820380516001836020036101000a031916815260200191505b5092505050600060405180830381600087803b1580156105ce57600080fd5b505af11580156105e2573d6000803e3d6000fd5b50505050505050565b600080600360009054906101000a900473ffffffffffffffffffffffffffffffffffffffff1673ffffffffffffffffffffffffffffffffffffffff16633642a13284336040518363ffffffff167c010000000000000000000000000000000000000000000000000000000002815260040180806020018373ffffffffffffffffffffffffffffffffffffffff1673ffffffffffffffffffffffffffffffffffffffff168152602001828103825284818151815260200191508051906020019080838360005b838110156106cb5780820151818401526020810190506106b0565b50505050905090810190601f1680156106f85780820380516001836020036101000a031916815260200191505b509350505050602060405180830381600087803b15801561071857600080fd5b505af115801561072c573d6000803e3d6000fd5b505050506040513d602081101561074257600080fd5b810190808051906020019092919050505090508060026000600154815260200190815260200160002060006101000a81548173ffffffffffffffffffffffffffffffffffffffff021916908373ffffffffffffffffffffffffffffffffffffffff1602179055507f0393d47abee40bed4c1d31b61a9ba0754e286c83f2b793235053fd777742341260015482604051808381526020018273ffffffffffffffffffffffffffffffffffffffff1673ffffffffffffffffffffffffffffffffffffffff1681526020019250505060405180910390a180915050919050565b60008083905060008173ffffffffffffffffffffffffffffffffffffffff1663eed29d26856040518263ffffffff167c01000000000000000000000000000000000000000000000000000000000281526004018082815260200191505060206040518083038186803b15801561089457600080fd5b505afa1580156108a8573d6000803e3d6000fd5b505050506040513d60208110156108be57600080fd5b81019080805190602001909291905050509050809250505092915050565b60026020528060005260406000206000915054906101000a900473ffffffffffffffffffffffffffffffffffffffff1681565b60008083905060008173ffffffffffffffffffffffffffffffffffffffff1663324868cb856040518263ffffffff167c0100000000000000000000000000000000000000000000000000000000028152600401808273ffffffffffffffffffffffffffffffffffffffff1673ffffffffffffffffffffffffffffffffffffffff16815260200191505060206040518083038186803b1580156109b057600080fd5b505afa1580156109c4573d6000803e3d6000fd5b505050506040513d60208110156109da57600080fd5b81019080805190602001909291905050509050809250505092915050565b60008290508073ffffffffffffffffffffffffffffffffffffffff166312a39db2836040518263ffffffff167c0100000000000000000000000000000000000000000000000000000000028152600401808273ffffffffffffffffffffffffffffffffffffffff1673ffffffffffffffffffffffffffffffffffffffff168152602001915050600060405180830381600087803b158015610a9857600080fd5b505af1158015610aac573d6000803e3d6000fd5b5050505060008290508073ffffffffffffffffffffffffffffffffffffffff16632d080ec560006040518263ffffffff167c0100000000000000000000000000000000000000000000000000000000028152600401808273ffffffffffffffffffffffffffffffffffffffff1673ffffffffffffffffffffffffffffffffffffffff168152602001915050600060405180830381600087803b158015610b5157600080fd5b505af1158015610b65573d6000803e3d6000fd5b5050505050505050565b60008290508073ffffffffffffffffffffffffffffffffffffffff16631eee993a836040518263ffffffff167c0100000000000000000000000000000000000000000000000000000000028152600401808273ffffffffffffffffffffffffffffffffffffffff1673ffffffffffffffffffffffffffffffffffffffff168152602001915050600060405180830381600087803b158015610c0f57600080fd5b505af1158015610c23573d6000803e3d6000fd5b5050505060008290508073ffffffffffffffffffffffffffffffffffffffff16632d080ec5856040518263ffffffff167c0100000000000000000000000000000000000000000000000000000000028152600401808273ffffffffffffffffffffffffffffffffffffffff1673ffffffffffffffffffffffffffffffffffffffff168152602001915050600060405180830381600087803b158015610cc757600080fd5b505af1158015610cdb573d6000803e3d6000fd5b505050505050505056fea165627a7a72305820d0207a023f9ef4c5dab3617b90d3de243b4cff11d870a7b83004d0f899efb82b0029",
  "source": "pragma solidity >=0.4 <0.6.0; \n\nimport \"./IComponentFactory.sol\";\nimport \"./IComponent.sol\";\n\n\ncontract Manager {\n\n    address owner;\n\n    // replace this with another contract called Database.sol\n    uint256 componentIndex;\n    mapping(uint256 => address) public registredComponents;\n\n    event ComponentCreated(uint256 index, address componentAddress);\n    event ComponentUpdated(uint256 index, address componentAddress);\n\n    IComponentFactory componentFactory;\n\n    constructor(address _componentFactoryAddress) public {\n        componentIndex = 0;\n        componentFactory = IComponentFactory(_componentFactoryAddress);\n    }\n\n    function createComponent(string memory _data) public returns(address) {\n        address componentAddress = componentFactory.createComponent(_data, msg.sender);\n        registredComponents[componentIndex] = componentAddress;\n        emit ComponentCreated(componentIndex, componentAddress);\n        return componentAddress;\n    }\n\n    function addChildComponentToComponent(address _parentComponentAddress, address _childComponentAddress) public {\n        IComponent parentComponent = IComponent(_parentComponentAddress);\n        parentComponent.addChild(_childComponentAddress);\n        IComponent childComponent = IComponent(_childComponentAddress);\n        childComponent.updateParentAddress(_parentComponentAddress);\n    }\n\n    function removeChildComponentFromComponent(address _parentComponentAddress, address _childComponentAddress) public {\n        IComponent parentComponent = IComponent(_parentComponentAddress);\n        parentComponent.removeChild(_childComponentAddress);\n        IComponent childComponent = IComponent(_childComponentAddress);\n        childComponent.updateParentAddress(address(0));\n    }\n\n    function updateData(address _componentAddress, string memory _data) public {\n        IComponent component = IComponent(_componentAddress);\n        component.updateData(_data);\n    }\n\n    function getChildComponentAddressById(address _parentComponentAddress, uint256 _id) public view returns(address) {\n        IComponent component = IComponent(_parentComponentAddress);\n        address childAddress = component.getChildComponentAddressById(_id);\n        return childAddress;\n    }\n\n    function getChildComponentIndexByAddress(address _parentComponentAddress, address _childComponentAddress) public view returns(uint256) {\n        IComponent component = IComponent(_parentComponentAddress);\n        uint256 childComponentIndex = component.getChildComponentIndexByAddress(_childComponentAddress);\n        return childComponentIndex;\n    }\n}",
  "sourcePath": "/home/cosmin/Documents/github/learning/licenta/IKHNAIE/contracts/Manager.sol",
  "compiler": {
    "name": "solc",
    "version": "0.5.0+commit.1d4f565a.Emscripten.clang"
  },
  "schemaVersion": "3.0.1",
  "updatedAt": "2019-03-04T20:33:03.939Z",
  "devdoc": {
    "methods": {}
  },
  "userdoc": {
    "methods": {}
  }
}